:020000040800F2
:10D00000FFFF0020F5120108491301084913010828
:10D0100049130108491301084913010800000000E1
:10D02000000000000000000000000000491301089B
:10D0300049130108000000004913010849130108C1
:10D04000491301084913010849130108491301084C
:10D05000491301084913010849130108491301083C
:10D06000491301084913010849130108491301082C
:10D07000491301084913010849130108491301081C
:10D08000491301084913010849130108491301080C
:10D0900049130108491301084913010849130108FC
:10D0A00049130108491301084913010849130108EC
:10D0B00049130108000000000000000049130108A6
:10D0C00049130108491301084913010849130108CC
:10D0D00049130108610901084913010849130108AE
:10D0E0004913010849130108000000000000000076
:10D0F0000000000000000000000000000000000030
:10D100000000000049130108000000004913010855
:10D11000000000000000000049130108450A010852
:10D12000491301084913010849130108491301086B
:10D13000491301080000000000000000000000008A
:10D1400049130108491301084913010800000000B0
:10D15000491301084913010849130108491301083B
:10D160004913010849130108491301080000000090
:10D1700049130108491301080000000000000000E5
:10D180004913010849130108491301080000000070
:10D8000010B5054C237833B9044B13B10448AFF37A
:10D8100000800123237010BD38400020000000006C
:10D820003815010808B5034B1BB103490348AFF392
:10D83000008008BD000000003C40002038150108B1
:10D84000034613F8012B002AFBD1181A0138704740
:10D8500081F0004102E000BF83F0004330B54FEAA1
:10D8600041044FEA430594EA050F08BF90EA020F0E
:10D870001FBF54EA000C55EA020C7FEA645C7FEAA1
:10D88000655C00F0E2804FEA5454D4EB5555B8BFC4
:10D890006D420CDD2C4480EA020281EA030382EA35
:10D8A000000083EA010180EA020281EA0303362DC7
:10D8B00088BF30BD11F0004F4FEA01314FF4801C9A
:10D8C0004CEA113102D0404261EB410113F0004FAC
:10D8D0004FEA03334CEA133302D0524263EB430363
:10D8E00094EA050F00F0A780A4F10104D5F1200E01
:10D8F0000DDB02FA0EFC22FA05F2801841F100015C
:10D9000003FA0EF2801843FA05F359410EE0A5F12F
:10D9100020050EF1200E012A03FA0EFC28BF4CF060
:10D92000020C43FA05F3C01851EBE37101F0004516
:10D9300007D54FF0000EDCF1000C7EEB00006EEB23
:10D940000101B1F5801F1BD3B1F5001F0CD34908AD
:10D950005FEA30004FEA3C0C04F101044FEA445204
:10D9600012F5800F80F09A80BCF1004F08BF5FEA8B
:10D97000500C50F1000041EB045141EA050130BD6B
:10D980005FEA4C0C404141EB010111F4801FA4F10E
:10D990000104E9D191F0000F04BF01460020B1FA63
:10D9A00081F308BF2033A3F10B03B3F120020CDA9B
:10D9B0000C3208DD02F1140CC2F10C0201FA0CF079
:10D9C00021FA02F10CE002F11402D8BFC2F1200CDE
:10D9D00001FA02F120FA0CFCDCBF41EA0C01904094
:10D9E000E41AA2BF01EB0451294330BD6FEA0404DD
:10D9F0001F3C1CDA0C340EDC04F11404C4F12002C8
:10DA000020FA04F001FA02F340EA030021FA04F3D9
:10DA100045EA030130BDC4F10C04C4F1200220FA30
:10DA200002F001FA04F340EA0300294630BD21FA6E
:10DA300004F0294630BD94F0000F83F4801306BF34
:10DA400081F480110134013D4EE77FEA645C18BF28
:10DA50007FEA655C29D094EA050F08BF90EA020FBF
:10DA600005D054EA000C04BF1946104630BD91EAB7
:10DA7000030F1EBF0021002030BD5FEA545C05D1BA
:10DA80004000494128BF41F0004130BD14F58004F9
:10DA90003CBF01F5801130BD01F0004545F0FE416D
:10DAA00041F470014FF0000030BD7FEA645C1ABFA2
:10DAB000194610467FEA655C1CBF0B46024650EAD9
:10DAC000013406BF52EA033591EA030F41F4002105
:10DAD00030BD00BF90F0000F04BF0021704730B58B
:10DAE0004FF4806404F132044FF000054FF0000160
:10DAF00050E700BF90F0000F04BF0021704730B521
:10DB00004FF4806404F1320410F0004548BF4042F5
:10DB10004FF000013EE700BF42004FEAE2014FEA4A
:10DB200031014FEA02701FBF12F07F4393F07F4F25
:10DB300081F06051704732F07F4208BF704793F028
:10DB40007F4F04BF41F40021704730B54FF460743B
:10DB500001F0004521F000411CE700BF50EA01023E
:10DB600008BF704730B54FF000050AE050EA0102E7
:10DB700008BF704730B511F0004502D5404261EB57
:10DB800041014FF4806404F132045FEA915C3FF498
:10DB9000D8AE4FF003025FEADC0C18BF03325FEA35
:10DBA000DC0C18BF033202EBDC02C2F1200300FAE6
:10DBB00003FC20FA02F001FA03FE40EA0E0021FA0B
:10DBC00002F11444BDE600BF70B54FF0FF0C4CF4F9
:10DBD000E06C1CEA11541DBF1CEA135594EA0C0FAB
:10DBE00095EA0C0F00F0DEF82C4481EA030621EAE6
:10DBF0004C5123EA4C5350EA013518BF52EA033521
:10DC000041F4801143F4801338D0A0FB02CE4FF0D2
:10DC10000005E1FB02E506F00042E0FB03E54FF002
:10DC20000006E1FB03569CF0000F18BF4EF0010EFA
:10DC3000A4F1FF04B6F5007F64F5407404D25FEAF6
:10DC40004E0E6D4146EB060642EAC62141EA5551A9
:10DC50004FEAC52040EA5E504FEACE2EB4F1FD0CEB
:10DC600088BFBCF5E06F1ED8BEF1004F08BF5FEA69
:10DC7000500E50F1000041EB045170BD06F000461B
:10DC800046EA010140EA020081EA0301B4EB5C04C8
:10DC9000C2BFD4EB0C0541EA045170BD41F48011C0
:10DCA0004FF0000E013C00F3AB8014F1360FDEBFE5
:10DCB000002001F0004170BDC4F10004203C35DAC1
:10DCC0000C341BDC04F11404C4F1200500FA05F344
:10DCD00020FA04F001FA05F240EA020001F00042E5
:10DCE00021F0004110EBD37021FA04F642EB06015B
:10DCF0005EEA430E08BF20EAD37070BDC4F10C0485
:10DD0000C4F1200500FA04F320FA05F001FA04F248
:10DD100040EA020001F0004110EBD37041F1000134
:10DD20005EEA430E08BF20EAD37070BDC4F120053F
:10DD300000FA05F24EEA020E20FA04F301FA05F2A7
:10DD400043EA020321FA04F001F0004121FA04F24F
:10DD500020EA020000EBD3705EEA430E08BF20EA1F
:10DD6000D37070BD94F0000F0FD101F00046400059
:10DD700041EB010111F4801F08BF013CF7D041EADB
:10DD8000060195F0000F18BF704703F000465200DF
:10DD900043EB030313F4801F08BF013DF7D043EAB0
:10DDA0000603704794EA0C0F0CEA135518BF95EA66
:10DDB0000C0F0CD050EA410618BF52EA4306D1D1ED
:10DDC00081EA030101F000414FF0000070BD50EA0C
:10DDD000410606BF1046194652EA430619D094EA96
:10DDE0000C0F02D150EA013613D195EA0C0F05D180
:10DDF00052EA03361CBF104619460AD181EA0301D4
:10DE000001F0004141F0FE4141F470014FF000008B
:10DE100070BD41F0FE4141F4780170BD70B54FF026
:10DE2000FF0C4CF4E06C1CEA11541DBF1CEA1355A6
:10DE300094EA0C0F95EA0C0F00F0A7F8A4EB050488
:10DE400081EA030E52EA03354FEA013100F088807F
:10DE50004FEA03334FF0805545EA131343EA126348
:10DE60004FEA022245EA111545EA10654FEA0026FD
:10DE70000EF000419D4208BF964244F1FD0404F5B6
:10DE8000407402D25B084FEA3202B61A65EB030512
:10DE90005B084FEA32024FF480104FF4002CB6EBCF
:10DEA000020E75EB030E22BFB61A754640EA0C004F
:10DEB0005B084FEA3202B6EB020E75EB030E22BF8F
:10DEC000B61A754640EA5C005B084FEA3202B6EBD0
:10DED000020E75EB030E22BFB61A754640EA9C008F
:10DEE0005B084FEA3202B6EB020E75EB030E22BF5F
:10DEF000B61A754640EADC0055EA060E18D04FEA1D
:10DF0000051545EA16754FEA06164FEAC30343EABC
:10DF100052734FEAC2025FEA1C1CC0D111F4801F89
:10DF20000BD141EA00014FF000004FF0004CB6E782
:10DF300011F4801F04BF01430020B4F1FD0C88BF21
:10DF4000BCF5E06F3FF6AFAEB5EB030C04BFB6EB2C
:10DF5000020C5FEA500C50F1000041EB045170BD1F
:10DF60000EF0004E4EEA113114EB5C04C2BFD4EB4C
:10DF70000C0541EA045170BD41F480114FF0000ED0
:10DF8000013C90E645EA060E8DE60CEA135594EA4C
:10DF90000C0F08BF95EA0C0F3FF43BAF94EA0C0F4F
:10DFA0000AD150EA01347FF434AF95EA0C0F7FF4C4
:10DFB00025AF104619462CE795EA0C0F06D152EA18
:10DFC00003353FF4FDAE1046194622E750EA4106FC
:10DFD00018BF52EA43067FF4C5AE50EA41047FF40D
:10DFE0000DAF52EA43057FF4EBAE12E74FF0FF3C72
:10DFF00006E000BF4FF0010C02E000BF4FF0010C43
:10E000004DF804CD4FEA410C7FEA6C5C4FEA430CBB
:10E0100018BF7FEA6C5C1BD001B050EA410C0CBF0A
:10E0200052EA430C91EA030F02BF90EA020F00206C
:10E03000704710F1000F91EA030F58BF994208BFD3
:10E0400090422CBFD8176FEAE37040F00100704790
:10E050004FEA410C7FEA6C5C02D150EA013C07D1E7
:10E060004FEA430C7FEA6C5CD6D152EA033CD3D032
:10E070005DF8040B704700BF8446104662468C462C
:10E080001946634600E000BF01B5FFF7B7FF00285F
:10E0900048BF10F1000F01BD4DF808EDFFF7F4FF88
:10E0A0000CBF012000205DF808FB00BF4DF808ED13
:10E0B000FFF7EAFF34BF012000205DF808FB00BF36
:10E0C0004DF808EDFFF7E0FF94BF012000205DF858
:10E0D00008FB00BF4DF808EDFFF7CEFF94BF01200D
:10E0E00000205DF808FB00BF4DF808EDFFF7C4FF06
:10E0F00034BF012000205DF808FB00BF4A0011D2A8
:10E1000012F5001211D20DD56FF47873B3EB625291
:10E110000ED44FEAC12343F0004343EA505323FA9D
:10E1200002F070474FF00000704750EA013002D112
:10E130004FF0FF3070474FF00000704753B94AB9B5
:10E14000002908BF00281CBF4FF0FF314FF0FF30FF
:10E1500000F094B9ADF1080C6DE904CE00F028F898
:10E16000DDF804E0DDE9022304B07047D0B50022F9
:10E170000D4B06460F46FFF727FDFFF7BFFF04468E
:10E18000FFF7A8FC0022094BFFF71EFD02460B46D5
:10E1900030463946FFF760FBFFF7B0FF0022234609
:10E1A00010431946D0BD00BF0000F03D0000F04113
:10E1B0002DE9F047089E04468846002B4BD18A4241
:10E1C000154667D9B2FA82F24AB1C2F1200701FAC4
:10E1D00002F320FA07F7954047EA030894404FEA14
:10E1E000154E230CB8FBFEF71FFA85FC0EFB1788B3
:10E1F00043EA084307FB0CF1994209D9EB1807F1F0
:10E20000FF3080F01B81994240F21881023F2B447D
:10E210005B1AA4B2B3FBFEF00EFB103344EA0344D6
:10E2200000FB0CFCA44509D92C1900F1FF3380F048
:10E230000781A44540F2048102382C4440EA07409B
:10E24000A4EB0C0400271EB1D4400023C6E9004310
:10E250003946BDE8F0878B4209D9002E00F0EB80EB
:10E260000027C6E9000138463946BDE8F087B3FA11
:10E2700083F7002F47D18B4202D3824200F2FA800B
:10E28000841A61EB030301209846002EE0D0C6E912
:10E290000048DDE702B9FFDEB2FA82F2002A40F060
:10E2A0008F80491B4FEA154E1FFA85F80127B1FBF5
:10E2B000FEFC230C0EFB1C1143EA014308FB0CF18E
:10E2C000994207D9EB180CF1FF3002D2994200F2C3
:10E2D000CD808446591AA3B2B1FBFEF00EFB101498
:10E2E00043EA044408FB00F8A04507D92C1900F1C3
:10E2F000FF3302D2A04500F2B6801846A4EB080412
:10E3000040EA0C409FE7C7F1200CBB4022FA0CFE0C
:10E310004EEA030E01FA07F420FA0CF521FA0CF389
:10E320004FEA1E482543B3FBF8F92C0C08FB1933C0
:10E330001FFA8EFA44EA034309FB0AF49C4202FAEC
:10E3400007F200FA07F10BD91EEB030309F1FF30C6
:10E3500080F087809C4240F28480A9F102097344D6
:10E360001B1BADB2B3FBF8F008FB103345EA0344C6
:10E3700000FB0AFAA24508D91EEB040400F1FF33A2
:10E380006BD2A24569D90238744440EA0940A0FB27
:10E390000289A4EB0A044C45C2464B4654D351D0E3
:10E3A000002E69D0B1EB0A0564EB030404FA0CFCFF
:10E3B000FD40FC404CEA0505C6E90054002747E74C
:10E3C000C2F1200320FA03F7954001FA02F021FA86
:10E3D00003F34FEA154E3843010CB3FBFEF71FFA67
:10E3E00085F80EFB173341EA034107FB08F38B4224
:10E3F00004FA02F407D9691807F1FF3C2FD28B42C7
:10E400002DD9023F2944CB1A81B2B3FBFEF00EFB9B
:10E41000103341EA034100FB08F38B4207D9691826
:10E4200000F1FF3C17D28B4215D902382944C91A92
:10E4300040EA07473BE73746304609E70746E7E645
:10E440001846FBE64145ABD2B8EB020A69EB0E0277
:10E4500001381346A4E76046E9E7184695E76746A2
:10E46000D1E781467CE702382C4447E7ACF1020C47
:10E470002B442FE7384608E73746E9E6704700BFE8
:10E4800030B4534AD36C43F40053D364514A936875
:10E4900043F440339360504B9A6822F000529A60E4
:10E4A0009A6842F080529A600346002875D1494824
:10E4B000826842F4800282604748826822F04042CB
:10E4C00022F03F028260002977D0D0F8B0200121ED
:10E4D00099400A43C0F8B0203F498A6842F00102DF
:10E4E0008A60092B15D80A464C6903EB43000121C9
:10E4F00001FA00F524EA050454615469451801FA4B
:10E5000005F52C43546154690230814024EA01012D
:10E510005161A3F10A0292B2082A1FD82E498869D4
:10E520002E4AA2FB0342D20802EB820254001B1BBC
:10E530009BB203EB4303012202FA03F420EA040036
:10E54000886188699C1802FA04F42043886188690C
:10E55000023302FA03F320EA03038B611E4BDA68ED
:10E5600022F01802DA60DA6822F02002DA60DA6853
:10E5700042F48032DA60DA6822F40052DA60DA6853
:10E5800022F46022DA60DA6822F44062DA601A6B00
:10E5900022F00F021A6330BC7047112807D01228EE
:10E5A0008AD10C48826842F08072826084E7094810
:10E5B000826842F4000282607EE70748D0F8B0200B
:10E5C0000121994022EA0102C0F8B02084E700BF8F
:10E5D000001002400003045000000450CDCCCCCC0D
:10E5E000164B9A6842F001029A609A6842F0805293
:10E5F0009A601A6B22F4F8621A631A6B42EA80106E
:10E6000018639A6842F004029A60002301E000BF98
:10E610000133322BFBDD00234FF6BA3293420ADC82
:10E62000064A126812F0040F01D10133F4E7034BDC
:10E63000186C80B270470020704700BF0000045083
:10E6400007EE900AB8EE677A0C4B1A8807EE902A0C
:10E65000F8EEE77A37EE677ADFED097A27EE277A68
:10E6600022331B889B1A07EE903AF8EEE77A87EE82
:10E67000270ADFED047A30EE270A7047A875FF1FDE
:10E680000000C84200005C4201380F2800F2B5804B
:10E69000DFE810F010003000B300B300B30050000A
:10E6A0006900B300B300B300B300B300B300B3001C
:10E6B00082009B00514A136E43F400631366504B73
:10E6C0001A6822F070021A601A6822F440721A6006
:10E6D000013989B2D9624B4A12684B49A1FB021237
:10E6E0009209013A9A6201225A611A6842F00102C3
:10E6F0001A607047414A936D43F0010393654FF0F0
:10E7000080431A6822F070021A601A6822F440727C
:10E710001A600139D9623B4A12683B49A1FB0212D7
:10E720009209013A9A6201225A611A6842F0010282
:10E730001A607047314A936D43F0100393650139B5
:10E7400089B2A2F50032D1622E4B1B682E49A1FB83
:10E7500003139B09013B936201235361136843F048
:10E76000010313607047254A936D43F020039365BE
:10E77000013989B2A2F5FE32D162224B1B682249CF
:10E78000A1FB03139B09013B9362012353611368AF
:10E7900043F0010313607047184A136E43F480334B
:10E7A0001366013989B2A2F55042D162154B1B683C
:10E7B0001549A1FB03139B09013B9362012353619C
:10E7C000136843F00103136070470C4A136E43F45F
:10E7D00000331366013989B2A2F54C42D162094B6C
:10E7E0001B680949A1FB03139B09013B93620123A9
:10E7F0005361136843F00103136070470010024037
:10E80000002C014008400020D34D621001380F2831
:10E8100045D8DFE800F008124444441D274444442E
:10E8200044444444313B1E4AD36843F00103D3605F
:10E830001C4B4FF000721A6070474FF08042D36853
:10E8400043F00103D360174B4FF080521A607047BA
:10E85000154AD36843F00103D360124B4FF4800292
:10E860005A607047114AD36843F00103D3600D4BDF
:10E870004FF400025A6070470D4AD36843F0010319
:10E88000D360084B4FF080721A607047094AD36812
:10E8900043F00103D360034B4FF000721A607047DE
:10E8A000002C014000E100E0001000400014004096
:10E8B000004001400044014001280BD0022810D044
:10E8C000062816D007281BD00F2820D0102825D0C6
:10E8D000002070471A4B1B6913F0010F2ED1002046
:10E8E00070474FF080431B6913F0010F1DD10020CA
:10E8F0007047144B1B6913F0010F18D100207047AB
:10E90000114B1B6913F0010F13D1002070470F4BFF
:10E910001B6913F0010F0ED1002070470C4B1B69CF
:10E9200013F0010F09D1002070470120704701202A
:10E93000704701207047012070470120704700BFD9
:10E94000002C014000100040001400400040014035
:10E950000044014001380F282DD8DFE800F0080EF0
:10E960002C2C2C151B2C2C2C2C2C2C2C2127124A1B
:10E97000136923F00103136170474FF0804213695C
:10E9800023F00103136170470C4A136923F001035C
:10E99000136170470A4A136923F00103136170473A
:10E9A000084A136923F0010313617047064A13698B
:10E9B00023F0010313617047002C01400010004058
:10E9C000001400400040014000440140002319466B
:10E9D000027812B3042B20D810B4A2F13004E4B2B0
:10E9E000092C14D803EB83035C001319303B01306E
:10E9F0000131C9B202780AB10429EED9052908D833
:10EA0000B3F5803F01D2012004E0002002E00020A5
:10EA100000E000205DF8044B7047052906D8B3F5E7
:10EA2000803F01D2012070470020704700207047CE
:10EA3000F0B482B0002307E002AA02EB43020021F7
:10EA400022F8081C0133DBB2032BF5D90022114652
:10EA5000154609E00139C9B2022930D80135EDB2B5
:10EA600000210130013292B20378BBB10F2A15D8D0
:10EA70002E2BEFD0A3F13004E4B2092C21D802AC44
:10EA800004EB450636F8084C04EB840467003B446D
:10EA9000303B26F8083C0131C9B2E2E70F2A12D810
:10EAA0000023032B09D802AA02EB430232F8082CF8
:10EAB000FF2A0CD80133DBB2F3E7012004E0002089
:10EAC00002E0002000E0002002B0F0BC704700200F
:10EAD000FAE7000010B582B00024154B1C80154BDE
:10EAE0001C700123144A13700146184601F07EFE83
:10EAF000019401F075FA0F4B1B78012B0DD0022BFE
:10EB000010D0019B01330193019BB3F1807FF0D3BF
:10EB1000094B00221A70022002E00020064B1870F8
:10EB200002B010BD044B00221A700120F8E700BFAC
:10EB3000E8410020EA4100201142002008B501F020
:10EB40004FFA0023154A1370154A1380154A1370A3
:10EB5000154A1370154A1370154A13704FF4E131BA
:10EB6000012001F05FFD012001F08AFE114A124BE5
:10EB70001B6813801B0C9370104B114A92E8030022
:10EB80001860998001F02CFA0E48FFF7A3FF01F0FE
:10EB900027FA0D48FFF79EFF08BD00BF1142002075
:10EBA000E8410020EB4100205540002012420020A7
:10EBB000EA410020FC41002000160108EC41002041
:10EBC000041601080C1601081C16010838B5054684
:10EBD0002348FFF77FFF002402E001F001FA01342F
:10EBE00040F6B7339C42F8D93A211E4802F010FC97
:10EBF000034690B101331C4A30211170517091705D
:10EC0000032204E0501C184CA1540133C2B21978FD
:10EC10000D29F7D1144B00219954144B1B78012B6B
:10EC20000AD01BB1022B0ED0002004E00E4928466A
:10EC300002F0FBFB012038BD0D4905F1120002F086
:10EC4000F4FB0120F7E7084C2146284602F0EDFBD3
:10EC500004F1120105F1120002F0E7FB0120EAE7DE
:10EC6000D0150108584000202842002054400020C0
:10EC70003A42002030B58BB005460C461F4A204B67
:10EC80001B6813801B0C93701E4B1F4A92E80300F5
:10EC9000186099801D4A6B4607CA03C31A7029463B
:10ECA000684602F0A6FB6846FEF7CAFD184B1B88B3
:10ECB0002DF800302146684602F09BFB6846FEF7BF
:10ECC000BFFD144B1B882DF800306846FFF702FF8C
:10ECD000044602280BD009490F4802F0D5FB50B179
:10ECE00000240E4B01221A7020460BB030BD0C4898
:10ECF000FFF7F0FEEFE7002CF3D0F5E7FC41002032
:10ED000000160108EC41002004160108DC1501087A
:10ED10003C160108CC150108584000205540002041
:10ED2000E815010808B5084A084B1B6813801B0C3E
:10ED30009370074B074A92E80300186099800648D1
:10ED4000FFF7C8FE08BD00BFFC4100200016010807
:10ED5000EC41002004160108F415010808B5084A22
:10ED6000084B1B6813801B0C9370074B074A92E8F3
:10ED70000300186099800648FFF7ACFE08BD00BF8D
:10ED8000FC41002000160108EC4100200416010897
:10ED9000C0150108284B1B78012B48D0F0B59BB05B
:10EDA0000E460546FFF744FE002842D03046FFF7E6
:10EDB0000DFE08B901203DE0204A214B1B6813805D
:10EDC0001B0C93701F4B204A92E803001860998037
:10EDD000FFF7C4FF0023737101AC1C4B27460FCB18
:10EDE00007C73B702046FEF72BFD84462718184BBB
:10EDF00007CB44F80C007960BA601B88BB812946B8
:10EE0000204602F0F6FA2046FEF71AFD114B1B8849
:10EE100023523146204602F0ECFA2046FEF710FD60
:10EE20000D4B1B8823522046FFF754FE02E00220C0
:10EE3000704701201BB0F0BD12420020FC410020B1
:10EE400000160108EC41002004160108A015010875
:10EE5000B01501083C160108CC15010838B5044668
:10EE60002E4B1D8875B92E48FEF7EAFC2D4B187005
:10EE70002D48FEF7E5FC2D4B187000232C4A13702B
:10EE80002C4A13706A1C254B1A802B4B5C55284B5F
:10EE90001B7853B9224A1278A24206D0254A10782C
:10EEA00018B9214A1278A2421ED11D4AD25CA24250
:10EEB0001BD01B4B1B78A3421BD01E4B1B781A4A3E
:10EEC000D25CA24219D0184B1B78A34219D0184B20
:10EED0001A78144B1B789A4217D0164B1A78134B9A
:10EEE0001B789A4215D0002038BD0133104A1370A8
:10EEF000E3E70F4B01221A70DFE701330D4A13706D
:10EF0000E5E70C4B01221A70E1E701200B4B18706A
:10EF1000EAE70A4B02221A700120E5E7E8410020E7
:10EF2000FC41002019420020EC4100201A42002040
:10EF3000134200201842002058400020EA410020DF
:10EF400003461A4A107810B9722B00D07047722B02
:10EF50000BD001280ED0022813D0032818D0042883
:10EF60001DD00020114B1870F0E7104B01221A70D1
:10EF700000207047652BEED10C4B02221A70002046
:10EF80007047612BE9D1094B03221A7000207047AA
:10EF9000642BE4D1054B04221A7000207047792BB2
:10EFA000DFD1024B00221A7001207047144200206A
:10EFB00030B44FF6FF73002510E0013292B2072AF9
:10EFC0000AD803F001045B08002CF6D083F4204338
:10EFD00083F001039BB2F0E70135ADB28D4203D25D
:10EFE000425D53400022EAE7184630BC7047F8B54E
:10EFF0000E4614461D4656232B7021236B70AF1C02
:10F000000F220146384602F02AFA230A6B74AC74C8
:10F010002246314605F1130002F0D8F904F1130637
:10F02000B6B204F1110189B23846FFF7C1FF04F10D
:10F0300014039BB2C0F30722AA5504F1150292B241
:10F04000E85404F116039BB25321A9541734A4B217
:10F050002422EA5400232B55069B1C80F8BD000097
:10F0600070B5F0B005461446ADF80E101E4B1B7877
:10F0700053B30DF10E06BDF80E2000960CAB2946D9
:10F080002046FFF7B4FF0A2205A9308802F09CF958
:10F0900007AD164B2C460FCB07C4238005A9284685
:10F0A00002F0A7F92846FEF7CBFB114B1B882B5229
:10F0B0002946012001F09AFB0CAA3188012001F0B9
:10F0C0007BFB002070B070BD0A4A0B4B1B6813809D
:10F0D0001B0C9370094B0A4A92E803001860998050
:10F0E000014B01221A70C4E71242002030160108B9
:10F0F000CC150108FC41002000160108EC4100205D
:10F100000416010830B585B0504B1B889BB26BB913
:10F1100056280BD000234D4A13804D4A13800223FA
:10F120008DF80F309DF80F0005B030BD474B1B88A0
:10F130009BB2012B3CD0454C23889BB25D1CADB2E9
:10F140002580D05423889BB2132B34D0404B1B888E
:10F150009BB2002B74D03D4B188880B23C4B1B886F
:10F16000173398426CDB14460D46394B1988113120
:10F1700089B2901CFFF71CFFADF80600BDF8063001
:10F180001B0A8DF80830BDF80630DBB28DF8093067
:10F190002E4B1B88234413F8023C532B13D000231F
:10F1A0002A4A13802A4A138002238DF80F30B9E7C8
:10F1B0002128AFD1BFE7507C937C03EB00239BB2A7
:10F1C00023480380C2E7214B1B88234413F8013CEA
:10F1D000242BE4D19DF80830DBB21D4A128822446A
:10F1E000D27C9342DBD19DF80930DBB2184A1288F9
:10F1F0002244127D9342D2D10023ADF80C300DE0B1
:10F20000BDF80C20BDF80C309BB22244D27CE254F5
:10F21000BDF80C3001339BB2ADF80C30BDF80C20BA
:10F2200092B20B4B1B889BB29A42E9D3084A1388CF
:10F230002B80002305490B8013808DF80F3071E778
:10F2400000230B8001238DF80F306BE7164200205E
:10F250001C42002008B5104B1B78012B06D013B1BF
:10F26000022B11D008BDFFF74DFFFBE70B4B1B88AE
:10F27000B3F5C87FF6D2FFF7F1FD084B1B880133C9
:10F28000074A0021D154EDE7FFF75AFE0028E9D0E4
:10F29000014B00221A70E5E711420020E8410020EE
:10F2A0005840002038B5134D134C0F2229462046F4
:10F2B00000F030F8052205F10F0104F10F0000F015
:10F2C00029F8202205F11E0104F1190000F022F8AE
:10F2D000202205F13E0104F1390000F01BF8074D32
:10F2E0002846FFF773FC0F22294604F1590000F06D
:10F2F00011F838BDDF420020A44400200C4D00204E
:10F300000346034A1068186012791A71704700BFEB
:10F31000401601080023934209D210B4CC5CC454B7
:10F3200001339BB29342F9D35DF8044B70477047A9
:10F33000F0B585B0044602223949FFF7EBFF394E9C
:10F34000022221463046FFF7E5FF0027A770E7704D
:10F3500084F8E5700F22A6F11C0104F11300FFF7F9
:10F36000D9FF0522A6F10D0104F12200FFF7D2FF1B
:10F37000A6F1AB0556F8432C56F83F3CC4F82720BD
:10F38000C4F82B3056F8043CC4F82F3056F8083C2B
:10F39000C4F833301422A6F13B0104F13700FFF723
:10F3A000B9FF01A8FFF7ACFF04220DEB020104F145
:10F3B0004B00FFF7AFFF1E22294604F14F00FFF775
:10F3C000A9FF1422A6F18D0104F16D00FFF7A2FF41
:10F3D0001422A6F1790104F18100FFF79BFF1E22A0
:10F3E000A6F1650104F19500FFF794FF0B22A6F149
:10F3F000270104F1CB00FFF78DFF84F8E87084F853
:10F40000E97056F8432C56F83F3CC4F81721C4F86D
:10F410001B31022231462046FFF77CFF05B0F0BDCC
:10F42000E0180108FB42002038B50546002402E040
:10F4300000F0D6FD013440F6B83303FB05F3A342D8
:10F44000F6D838BD000000002DE9F0478CB001ACC3
:10F45000854D0FCD0FC495E8030084E80300002319
:10F4600008E0824AD25C303A0CA9194401F8142C05
:10F4700001339BB2032BF4D99DF81C309DF81D106D
:10F48000C3EB431203EB8202D30001EB810101EBDA
:10F4900081018A001A4492B29DF81E3003EB830367
:10F4A00059000A4492B29DF81F301A4492B20523C3
:10F4B00008E06E49C95C30390CA8184400F8141CE7
:10F4C00001339BB2062BF4D99DF8213003EB830363
:10F4D0005C009DF822301C44082308E06349C95CA5
:10F4E00030390CA8184400F8141C01339BB2092BC6
:10F4F000F4D99DF8243003EB83034FEA430E9DF8C3
:10F5000025309E440B2308E05849C95C30390CA8CB
:10F51000184400F8141C01339BB20C2BF4D99DF84D
:10F52000273003EB83034FEA430C9DF828309C44BB
:10F530000E2308E04D49C95C30390CA8184400F886
:10F54000141C01339BB20F2BF4D99DF82A3003EB26
:10F5500083035D009DF82B301D44112308E04349CF
:10F56000C95C30390CA8184400F8141C01339BB254
:10F57000122BF4D99DF82D3003EB83034FEA430897
:10F580009DF82E3098444FF000094FF0000A40F2E9
:10F59000B27307E0364E002719EB06094AEB070A5B
:10F5A00001339BB293420AD213F0030FF2D02CA77F
:10F5B000D7E9006719EB06094AEB070AF0E70C2CBC
:10F5C00044D8022C10D912F0030F0DD0023C0CAB22
:10F5D00003EB440434F82C2C264B03FB02F319EB09
:10F5E00003094AEBE37A14E0022C10D912F0030F5E
:10F5F0000DD1A31E0CAA02EB430333F82C2C1D4B98
:10F6000002FB033319EB03094AEBE37A01E0022C16
:10F610001FD0BEF1010F08D90EF1FF3E154B03FBC1
:10F620000EFE19EB0E094AEBEE7AC5EB0515AB00A1
:10F630004FF4616202FB0C3CE04419EB08004AEB1A
:10F64000E8710D4BC3F82700C3F82B100CB0BDE8D0
:10F65000F0870A4A002319EB02094AEB030AD8E7AC
:10F660008033E101000000005015010844430020F0
:10F670000085E201805101006843002080DE2800FF
:10F6800008B50122114640F20D2000F04DFC4FF468
:10F690007A60FFF7C9FEFFF751FA0122114640F2E6
:10F6A0000D2000F041FC4FF47A60FFF7BDFEFFF73C
:10F6B00039FB68B1124801F009FE0022012140F235
:10F6C0000D2000F031FC4FF47A60FFF7ADFEE4E767
:10F6D0000C4801F0FBFD4FF47A60FFF7A5FE0A49E4
:10F6E0000A48FFF7C7FA18B1094801F0EFFDF6E73D
:10F6F000084801F0EBFD4FF47A60FFF795FE08BD76
:10F7000048160108601601087816010884160108D9
:10F7100090160108A816010808B5FFF71FFB18B1DD
:10F720000E4801F0D3FDF8E70D4801F0CFFD4FF48E
:10F730007A70FFF779FE0B4801460F38FFF72AFB76
:10F7400018B1094801F0C2FDF5E7084801F0BEFD17
:10F750004FF47A70FFF768FE08BD00BFC0160108BD
:10F76000DC160108EE420020F81601081017010807
:10F7700038B5574801F0AAFD72B6564C14222146FE
:10F780005548FFF7C7FD142221465448FFF7C2FD34
:10F790000024534B1C70534D85F8E84085F8E94030
:10F7A00085F8E5402246012140F2071000F0BCFB3D
:10F7B0002246012140F20D2000F0B6FB4FF4E1316A
:10F7C000012000F02FFF4FF4E131022000F02AFF6A
:10F7D00014210720FEF758FF00F020F921461120E0
:10F7E000FEF74EFE404801F071FD0720FFF70EF8CE
:10F7F000012001F045F862B63C4801F067FD7E202B
:10F8000000F02EF93A4BED221C217E2000F072FA16
:10F81000384801F05BFDED231C227E21364800F0C4
:10F8200047F92846FFF784FD344BD3F8943013F0A2
:10F83000006F2DD0304B83F8A74083F8A84083F8A1
:10F84000A94083F8AA402E4801F040FDFFF718FFB9
:10F85000FFF762FFFFF726FD2A4C05222A492046C2
:10F86000FFF758FD7D2000F0FBF8A4F11403682297
:10F8700000217D2000F03EFA174800F0FDFC194BF6
:10F88000C3F81701C3F81B11204801F01FFD38BD54
:10F89000194DD5F8A7300133C5F8A7301C4C4FF4EB
:10F8A000006300227E21204600F002F97E2000F055
:10F8B000D7F80422D5F8A71004F1A600FFF72AFD17
:10F8C00023464FF4006200217E2000F013FABAE7CD
:10F8D00018180108681501088844002044430020D6
:10F8E00058430020684300203818010854180108C4
:10F8F000281701087C18010850420020001002401F
:10F90000A4180108B844002000400020C8180108CD
:10F910000C45002082B0234B9B6D13F0805F15D007
:10F92000214B1B6803F4C063B3F5007F21D0002195
:10F930001E4A136823F007030B431360136803F098
:10F9400007038B421FD0002002B07047154A936D09
:10F9500043F080539365936D03F080530193019BB3
:10F96000114B1B6803F4C063916D21F080519165C8
:10F97000DAE7802803D9A02803D90221D8E700219B
:10F98000D6E70121D4E7A2F58052136843F00803BB
:10F990001360136823F0F00343F0B00313600120F9
:10F9A000D2E700BF0010024000700040002002407B
:10F9B00010B5114CD4F8883043F47003C4F8883083
:10F9C0000E4B1A6842F001021A60002199601A6811
:10F9D00022F0A85222F410221A604FF48052DA600A
:10F9E0001A6822F480221A609961B020FFF792FF12
:10F9F0004FF00063A36010BD00ED00E00010024076
:10FA000008B5044B1B68D3F888300348984700209A
:10FA100008BD00BF304D0020C10801080E4B1A6917
:10FA200022F07F421A615B69002B0EDB0A4B1B69D7
:10FA300013F4803FFAD1084B1A6822F480621A60EE
:10FA40005A6922F001025A617047034B034A9A60D7
:10FA500002F188329A60E9E70020024023016745FD
:10FA6000124B1B6913F4803FFAD1104B5A6922F0F4
:10FA700001025A615A6942F002025A615A6922F43B
:10FA80007E725A615A6942EAC00058615A6942F46A
:10FA900080325A61054B1B6913F4803FFAD1034A47
:10FAA000536923F002035361002070470020024095
:10FAB00008B501F5803102EBC1211A4601F086FC40
:10FAC00008BD08B501F082FC08BD00238B4206D2B8
:10FAD000C202D25CFF2A04D101339BB2F6E70120B7
:10FAE000704700207047000010B40C4B1B6813F4E3
:10FAF000806F04D0094C236823F480632360074B94
:10FB00005C6944F001045C61016042605A6922F062
:10FB100001025A6100205DF8044B7047002002404A
:10FB20002DE9F04182B006460C46154610F0070755
:10FB300040F09D8088464B1E16D4DA100132D20068
:10FB4000D2B2E3B2D21AD2B22746C2F10800A1194A
:10FB50006844FFF7B6FF664B1B6913F4803FFAD188
:10FB6000082C35D9002451E00733E6E7A85C02A948
:10FB7000194401F8080C0133DBB201329742F5D881
:10FB80009DF800309DF8011043EA01239DF8021012
:10FB900043EA01439DF803109DF804209DF80500F9
:10FBA00042EA00229DF8060042EA00429DF8070062
:10FBB00042EA006243EA01613046FFF795FF4C4B91
:10FBC0001B6913F4803FFAD1002002B0BDE8F08138
:10FBD00000231A46D2E7295D2B195A7841EA0221FF
:10FBE0009A7841EA0241D8781A7993F805C042EA36
:10FBF0000C2293F806C042EA0C42DB7942EA036227
:10FC000041EA0061A019FFF76FFF0834A8F108036B
:10FC1000A342E0D82246002307E0A85C02A91944C9
:10FC200001F8080C0133DBB201329742F5D89DF898
:10FC300000309DF8011043EA01239DF8021043EAC9
:10FC400001439DF803109DF804209DF8050042EA49
:10FC500000229DF8060042EA00429DF8070042EAB1
:10FC6000006243EA0161A019FFF73EFFA7E7B8462B
:10FC7000C61B3A4631466846FFF723FF002308E0DB
:10FC8000E95C02AA424402F8081C0133DBB208F125
:10FC90000108B8F1070FF3D99DF800309DF8011065
:10FCA00043EA01239DF8021043EA01439DF8031043
:10FCB0009DF804209DF8050042EA00229DF8060008
:10FCC00042EA00429DF8070042EA006243EA01610D
:10FCD0003046FFF709FF391989B2C7F10802083920
:10FCE0002A4489B206F10800FFF71AFF67E700BF50
:10FCF000002002402DE9F04182B016461D4611F069
:10FD0000070840F099809046531E1AD4DA10013249
:10FD1000D200D2B2F3B2D21AD2B200F5803001EBE7
:10FD2000C0243746C2F10800A1196844FFF7C9FE94
:10FD3000674B1B6913F4803FFAD1082E2DD900269A
:10FD400049E00733E2E7A85C02A9194401F8080C6E
:10FD50000133DBB201329742F5D89DF800309DF8AF
:10FD6000011043EA01239DF8021043EA01439DF884
:10FD700003109DF804209DF8050042EA00229DF83A
:10FD8000060042EA00429DF8070042EA006243EAA8
:10FD900001612046FFF7A8FE91E000231A46DAE74A
:10FDA000A95DAB195A7841EA02219A7841EA0241E9
:10FDB000D8781A7993F805C042EA0C2293F806C065
:10FDC00042EA0C42DB7942EA036241EA0061A0198F
:10FDD000FFF78AFE0836A8F10803B342E0D832469E
:10FDE000002307E0A85C02A9194401F8080C0133BC
:10FDF000DBB201329742F5D89DF800309DF8011032
:10FE000043EA01239DF8021043EA01439DF80310E1
:10FE10009DF804209DF8050042EA00229DF80600A6
:10FE200042EA00429DF8070042EA006243EA0161AB
:10FE3000A019FFF759FE42E000F5803001EBC02128
:10FE40004446A1EB0807424639466846FFF739FEAB
:10FE5000002307E0E95C02AA224402F8081C0133EF
:10FE6000DBB20134072CF5D99DF800309DF8011064
:10FE700043EA01239DF8021043EA01439DF8031071
:10FE80009DF804209DF8050042EA00229DF8060036
:10FE900042EA00429DF8070042EA006243EA01613B
:10FEA0003846FFF721FE08EB060189B2C8F10802C7
:10FEB00008392A4489B207F10800FFF731FE044BE4
:10FEC0001B6913F4803FFAD1002002B0BDE8F08135
:10FED00000200240030A0B701070704710B582B00A
:10FEE0000C460DF106020DF10701FFF7F3FF9DF837
:10FEF0000730072B0BD00B4A52F82320012C0BD0D4
:10FF00009DF8061001238B40936202B010BD023BA6
:10FF1000044A52F82320F1E79DF8061001238B4094
:10FF20009361F2E70C400020F0B583B005460C4623
:10FF300016460DF106020DF10701FFF7CBFF9DF804
:10FF40000710072915D0124B53F82100114FFB6CF5
:10FF500001228A401343FB6401689DF806305B0070
:10FF600003229A4021EA0202012C07D0026003B06A
:10FF7000F0BD8B1E064A52F82300E7E7012101FA83
:10FF800003F31A43026031462846FFF7A7FFEEE766
:10FF90000C4000200010024000B583B00DF10602B5
:10FFA0000DF10701FFF796FF9DF80730072B0DD0E5
:10FFB0000A4A52F8232051699DF806000123834024
:10FFC000194208D1936103B05DF804FB023B034A78
:10FFD00052F82320EFE79362F5E700BF0C400020C2
:10FFE000024B4AF6AA221A60704700BF0030004058
:10FFF00038B50446FFF7F4FF0F4A1368591C116027
:020000040801F1
:1000000063801120FEF7ECFAFEF71AFBF2EE047A99
:1000100020EE270ABDEEC00A10EE103AC4F8B33045
:10002000FFF712FA054D2846FEF7D0FD0F222946AC
:10003000201DFFF76FF938BD204200200C4D002035
:100040002DE9F043ADF57D7D7E4801F03FF90027B5
:10005000B8463D464FF001094FE07B4801F036F9C4
:10006000A8467A48FFF7C4FF794B93F8AB30552B7D
:100070000AD0784A214601A8FEF7F2FF00285AD19B
:10008000754801F023F956E0714B93F8AC30302BF2
:10009000EFD16E4C022271492046FFF73BF940F246
:1000A0001F12214601A8FFF735F940F21F14E0E7BF
:1000B0006B4801F00BF96B4C02222146FBA8FFF7BD
:1000C00029F90222214601A8FFF724F99DF8EC3313
:1000D000552B34D000242646FFF782FF002C40F039
:1000E0009280614B00221A80002E40F09280FFF730
:1000F00077FFFFF775FF4FF000095B4B1C88002C62
:10010000D6D1FFF76DFF594B9E7CB742F5D019460B
:10011000574801F0DBF80135ADB240F20710FFF7A8
:100120003BFFA5EB0803494AD2F833108B4294D227
:10013000B9F1000F95D1FFF753FF3746D9E79DF886
:10014000ED33302B02D000242646C5E70222FBA95E
:100150004248FFF7DFF8444B1C8840F21F139C42D3
:1001600002D000242646B7E7384E1A463D493046AD
:10017000FFF7D0F8DFF8D8901E2206F14F0148466D
:10018000FFF7C8F8142206F16D0109F11E00FFF710
:10019000C1F8142206F1810109F13200FFF7BAF823
:1001A0001E2206F1950109F14600FFF7B3F814226B
:1001B00006F1370109F17000FFF7ACF80B2206F1E8
:1001C000CB0109F18400FFF7A5F80F2206F1130116
:1001D00009F18F00FFF79EF8052206F1220109F1CF
:1001E0009E00FFF797F8D6F83330C9F8A330D6F859
:1001F0002F30C9F8A7300222314609F1AB00FFF7D2
:1002000089F8012668E7134A214601A8FEF728FF6E
:1002100067E7144C4FF400637E212046FFF748FC4B
:100220007E20FFF71DFCED22094904F11C00FFF7B9
:1002300071F823464FF4006200217E20FFF75AFD3B
:1002400055E700BFE41801081419010868430020AD
:10025000504200206C43002034190108FB4200206A
:10026000501901080C4500209C4400204443002004
:1002700000190108000000002DE9F0478CB0064687
:1002800001AC834D0FCD0FC495E8030084E8030053
:10029000002307E0F25C303A0CA9194401F8142C51
:1002A00001339BB2032BF5D99DF81C309DF81D102E
:1002B000C3EB431203EB8202D30001EB810101EB9C
:1002C00081018A001A4492B29DF81E3003EB830329
:1002D00059000A4492B29DF81F301A4492B2052385
:1002E00007E0F15C30390CA8184400F8141C013305
:1002F0009BB2062BF5D99DF8213003EB83035C00FC
:100300009DF822301C44082307E0F15C30390CA82A
:10031000184400F8141C01339BB2092BF5D99DF841
:10032000243003EB83034FEA430E9DF825309E44AF
:100330000B2307E0F15C30390CA8184400F8141CBA
:1003400001339BB20C2BF5D99DF8273003EB8303C7
:100350004FEA430C9DF828309C440E2307E0F15CE3
:1003600030390CA8184400F8141C01339BB20F2B31
:10037000F5D99DF82A3003EB83035D009DF82B30FF
:100380001D44112307E0F15C30390CA8184400F833
:10039000141C01339BB2122BF5D99DF82D3003EBC1
:1003A00083034FEA43089DF82E3098444FF000092C
:1003B0004FF0000A40F2B27307E0364E002719EB07
:1003C00006094AEB070A01339BB293420AD213F0A3
:1003D000030FF2D02CA7D7E9006719EB06094AEB07
:1003E000070AF0E70C2C49D8022C10D912F0030FA1
:1003F0000DD0023C0CAB03EB440434F82C2C264B00
:1004000003FB02F319EB03094AEBE37A14E0022C35
:1004100010D912F0030F0DD1A31E0CAA02EB430357
:1004200033F82C2C1C4B02FB033319EB03094AEB6A
:10043000E37A01E0022C1AD0BEF1010F08D90EF1C7
:10044000FF3E154B03FB0EFE19EB0E094AEBEE7A4D
:10045000C5EB0515AB004FF4616202FB0C3CE044B8
:1004600019EB08004AEBE8710CB0BDE8F0870B4AC5
:10047000002319EB02094AEB030ADDE70020002103
:10048000F2E700BFAFF300808033E101000000001D
:10049000801501080085E2018051010080DE2800FE
:1004A00000B5ADF6040DFFF7B9FA18217F20FFF76C
:1004B0000CFB00282DD14FF4006219496846FFF764
:1004C00000FB379A174B1B689A4214D01A20FFF78B
:1004D000C7FA144B1B683793134B1B680B93134BD2
:1004E0001B680E93124B1B680F936A464FF4006112
:1004F0000B48FFF715FB0F4B094A9A600E4BA2F50C
:1005000060521A600D4800F0E1FE0DF6040D5DF832
:1005100004FB0B4A18210B48FFF702FBCBE700BF97
:1005200000D00008DC0000082C000008380000089B
:100530003C00000800ED00E0304D00208419010867
:100540006819010800F803080378302B53D110B55F
:1005500096B0044608222849013000F06EFF08B921
:1005600016B010BD254B1B685B6E254A10681860DD
:1005700012791A71234A13AB07CA03C31A701822DF
:1005800021496846FFF79DFA002308E003F11802AD
:10059000E118497A16A8024402F8581C0133272BA7
:1005A000F4DD00230AE003F1400216A9194411F812
:1005B0000C1C16A8024402F8581C0133082BF2DD6B
:1005C0007F20FFF74DFA6A4649210F48FFF7A8FA46
:1005D000002300E00133B3F5241FFBD3BFF34F8F9B
:1005E0000A49CA6802F4E062094B1343CB60BFF3C7
:1005F0004F8F00BFFDE7704710F80308304D002013
:10060000981501085C19010800F8030800ED00E0E6
:100610000400FA050138C0B2022801D80120704751
:100620000020704738B504460D46FFF7F3FF002859
:100630003CD0022C57D0032C71D0012C37D0601E37
:10064000474B53F820100A6822F001020A6053F861
:1006500020100A6822F00C020A6053F820301A6851
:1006600012F4004F76D03F4A1168B1FBF5F189B220
:10067000490089B2D9603A4B53F820200021D1615A
:10068000516821F49041516053F820108A6822F09B
:100690002A028A6053F820100A6842F00C020A60AD
:1006A00053F82020136843F00103136038BD2E4B2C
:1006B0001A6E42F480421A66DA6C42F00102DA6481
:1006C0004FF090431A6822F470121A601A6842F4CC
:1006D00020121A605A6A22F47F625A625A6A42F4FD
:1006E000EE625A62ABE7204B9A6D42F400329A6593
:1006F000DA6C42F00102DA644FF090431A6822F09B
:10070000F0021A601A6842F0A0021A601A6A22F413
:100710007F421A621A6A42F4EE421A628FE7124B63
:100720009A6D42F480229A65DA6C42F00402DA642F
:100730000E4B1A6822F470021A601A6842F4200202
:100740001A605A6A22F47F425A625A6A42F4EE42AE
:100750005A6274E7034A1168B1FBF5F189B289E77F
:1007600024400020084000200010024000080048FB
:1007700038B504460D46FFF74DFF0346A8B10022E9
:100780004FF6BA339A420BD8631E0A4951F8233008
:10079000D96911F0800F01D10132F1E7ADB21D85A9
:1007A0004FF6BA339A4202D80123184638BD0023C7
:1007B000FBE700BF24400020F8B506460D4617466B
:1007C000FFF728FF034668B10024AC4207D2395D29
:1007D0003046FFF7CDFF10B10134A4B2F5E7AC42CB
:1007E00002D301231846F8BD0023FBE770B5064687
:1007F0000D46FFF70FFF034658B10024295D39B1BC
:100800003046FFF7B5FF034618B10134A4B2F5E74F
:100810000123184670BD000070B504460D46FFF771
:10082000F9FE0646C8B1601E144B53F82030DA6951
:1008300012F0080F03D01A6A42F008021A6200236D
:100840004FF6BA32934210D80C4A52F82020D169A0
:1008500011F0200F05D10133F2E700232B70304651
:1008600070BD968CF6B201222A704FF6BA329342CE
:10087000F5D900232B70FF26F1E700BF24400020AC
:1008800010B50446FFF7C6FE98B1601E094B53F839
:100890002020136843F020031360074B1B56002BE6
:1008A00007DB03F01F015B0901228A40034941F87D
:1008B000232010BD244000203040002000E100E053
:1008C000F0B583B01C4800F001FD1C4800F0FEFCB0
:1008D0001B4800F0FBFC1B4800F0F8FC1A4800F035
:1008E000F5FC72B662B6194C2368D3F88C60782593
:1008F00001950B2300934FF4A0530022144915488F
:10090000B04706462368D3F88C7001950C230093FA
:100910004FF40063002210491048B8470546236889
:10092000D3F89030304698472368D3F89030284663
:10093000984703B0F0BD00BFB0190108DC190108E9
:10094000201A01084C1A0108981A0108304D00209D
:1009500071F70008A41A010841000108AC1A010847
:1009600030B583B072B60DF107010120FFF754FFD7
:10097000044601460220FFF7FBFE9DF8073013B145
:10098000144B1B882BB1134B00221A8062B603B0A4
:1009900030BD104D104A29462046FEF75BFC2B88DF
:1009A000002BF3D00C4B1B7C522B05D0542BEDD1DC
:1009B0000A48FFF7C9FDE6E7BFF34F8F0849CA6849
:1009C00002F4E062074B1343CB60BFF34F8F00BFCD
:1009D000FDE700BF9C4400200C4500201D45002081
:1009E00000ED00E00400FA05837C0133DBB2837480
:1009F000392B26D930238374437C0133DBB2437413
:100A0000352B1ED930234374C37B0133DBB2C37350
:100A1000392B16D93023C373837B0133DBB2837345
:100A2000352B0ED930238373037B0133DBB2037381
:100A3000392B06D9C37A312B03D830220273013304
:100A4000C372704708B572B60720FDF735FF48B18D
:100A5000094A13780133DBB21370312B04D8072015
:100A6000FDF778FF62B608BD134600221A700348EE
:100A7000FFF7BAFFF3E700BF244200204443002001
:100A800010B50C461368012B05D0022B07D0236844
:100A90000133236010BD5368C0B29847F7E79368ED
:100AA0001870936801339360F1E730B4441C00255B
:100AB0000570B2B1096809B1002009E03023437024
:100AC000012024E0C1F130012170013001341146D0
:100AD000E9B191FBF3F203FB12110029F2DB303193
:100AE000F2E715460A6842B93023437001200EE050
:100AF00037322270013501340A463AB1B2FBF3F1C4
:100B000001FB1322092AF3D83032F2E7284630BC21
:100B10007047F8B504460D4617461E4605E03246B6
:100B200039463020FFF7ACFF0134AC42F7DBF8BDAB
:100B3000F8B504460D4617461E4605E032463946CE
:100B40002020FFF79DFF0134AC42F7DBF8BD08B56C
:100B500001460320FFF70CFE08BD00000000000066
:100B60002DE9F04798B004468846164600211391B7
:100B700014911591169117914C22684600F031FCA2
:100B8000D4E9004520462946FDF7B8FA8146FCF72E
:100B9000A1FF02460B4620462946FCF75DFE0446AF
:100BA0000D4686B955A3D3E90023FDF70DF8FDF7EF
:100BB000DDFA06460F464FF0000A16E000224C4BC5
:100BC000FDF702F83E46771E002EF7D1FDF7CEFA6C
:100BD00006460F46EFE70022454B20462946FCF724
:100BE000F3FF04460D460AF1010A0022414B20465C
:100BF0002946FDF75BFA0028EDD10AF1FF35B9F17E
:100C0000000F23D1302388F800304FF0010909F19B
:100C1000010A2E2308F8093056EA070326D00024DB
:100C200040E0354BA3FB0913DB08184603EB8303B5
:100C30005900A9EB010318A901EB820141F8143C0A
:100C400081460132B9F1000FEBD10CE00022F9E747
:100C5000013A18AB03EB820353F8143C303308F825
:100C6000093009F10109002AF2D1D0E7302308F850
:100C70000A3009F1020A31E00A22002330463946DF
:100C8000FDF75CFA04F1010918AB03EB840444F8A6
:100C9000602C0A22002330463946FDF74FFA0646FB
:100CA0000F464C4656EA0703E6D107E018AB03EBC4
:100CB0008403002243F8602C013D0134002DF5D15E
:100CC0000AE0013C18AB03EB840353F8603C30337B
:100CD00008F80A300AF1010A002CF2D1002308F8C2
:100CE0000A30504618B0BDE8F08700BFAFF300806F
:100CF000000024400000F03FCDCCCCCC00A0D88533
:100D0000573476432DE9F04F97B001900C46914649
:100D1000212200210DA800F064FB30238DF834302F
:100D200000230C93012202929B460BE0019D2A4670
:100D30000CA90D20FFF7A4FE2A460CA90A20FFF7F4
:100D40009FFE01342078002800F0BB82252841D086
:100D50000A28EBD0019A0CA9FFF792FEF1E746F0C2
:100D60000106144600293AD1621C6378203B102BFF
:100D700033D801A050F823F0C30D0108DB0D0108A2
:100D8000DB0D0108CF0D0108DB0D0108DB0D0108AB
:100D9000DB0D0108DB0D0108DB0D0108DB0D01088F
:100DA000DB0D0108BD0D0108DB0D01085F0D010819
:100DB000DB0D0108DB0D0108C90D010846F0020634
:100DC000CFE746F00406CCE746F00806C9E746F050
:100DD0001006C6E700263146C4E70121C2E7002518
:100DE0002F4600E00F4667B9601C6378A3F130021C
:100DF000092AF7D805EB85056A00303BD51804466B
:100E0000F1E7621C63782E2B36D04FF00008CDF846
:100E10000880631C6278682A04D06C2A42D04C2A6D
:100E200043D023465C1C5878A0F15803202B00F2D5
:100E30004182DFE813F028013F023F023F023F02F8
:100E40003F023F023F023F023F02AB01F8013D007B
:100E50003F029A003F023F023D003F023F023F0235
:100E60003F0238028D01BA013F023F0202023F02F7
:100E7000C9013F023F0228014FF00008404600E050
:100E8000384668B9541C5378A3F130010929F7D8C2
:100E900008EB88084FEA480202EB01082246F0E717
:100EA0001446B6E74BF0010BBCE74BF0020BB9E779
:100EB00009F10407D9F8003016A941F82C3D0A239E
:100EC00001220DA8FFF7F1FD82460DAB03EB0008F0
:100ED0000B9B002B07DB16F0020F17D000F1010A65
:100EE0004FF02B0903E000F1010A4FF02D0916F035
:100EF000080F19D0B9F1000F10D1019B0CAA294697
:100F00005046FFF706FEAA46B9467AE116F00409F4
:100F1000EDD000F1010A4FF02009E8E7019A0CA991
:100F20004846FFF7ADFDE8E716F0010F04D0B9F130
:100F3000000F13D1B94664E1019B0CAA2946504623
:100F4000FFF7F6FDB9F1000F01D1B94659E1019A59
:100F50000CA94846FFF794FDB94652E1019A0CA945
:100F60004846FFF78DFDB9464BE1BBF1000F28D194
:100F7000D9F800300593D9F804301B0E002263F332
:100F80001F620492DDE90423CDE9082309F1080971
:100F9000029B0BBBBBF1000F25D108220DA908A8AD
:100FA000FFF7DEFD804600220023DDE90801FDF7A2
:100FB0007DF8F8B916F0020F2CD008F101082B27A4
:100FC0001BE00BF1FF33012BE2D8D9E90123CDE976
:100FD000082309F10C09DBE742460DA908A8FFF731
:100FE000BFFD8046DFE742460DA908A8FFF7B8FD20
:100FF0008046D8E708F101082D2716F0080F16D013
:101000007FB9019B0CAA29464046FFF782FDA846FE
:101010000DAF2AE016F00407EFD008F101082027F1
:10102000EBE7019A0CA93846FFF72AFDE9E716F02D
:10103000010F07D0002FEBD0019A0CA93846FFF71B
:101040001FFDE5E7019B0CAA29464046FFF770FD0E
:10105000002FDDD0019A0CA93846FFF711FDD7E724
:101060000137019A0CA9FFF70BFD38780028F7D15A
:1010700016F0010F3FF465AE019B0CAA29464046CD
:10108000FFF756FD5DE609F104030393D9F800303C
:1010900016A941F83C3D102300220DA8FFF705FDDD
:1010A00082460DAB03EB000816F0080921D016F0BC
:1010B000100910D1019B0CAA29465046FFF729FDC3
:1010C000AA4616F0100F00F0AB80B9F1000F2FD038
:1010D000DDF80C9095E0DDF804904A460CA930202C
:1010E000FFF7CEFC4A460CA97820FFF7C9FCB946A9
:1010F000E0E716F0010FE4D116F0100901D000F17D
:10110000020A019B0CAA29465046FFF711FDB9F1CE
:10111000000FD6D0DDF804904A460CA93020FFF726
:10112000AFFC4A460CA97820FFF7AAFCB946C8E7ED
:10113000019F3A460CA93020FFF7A2FC3A460CA9C1
:101140007820FFF79DFC0AF1020ADDF80C9058E0C8
:1011500009F10407D9F8003016A941F83C3D0823ED
:1011600000220DA8FFF7A1FC8246B9460DAB03EBA8
:101170000A0816F0080F36D116F0010F41D1019B75
:101180000CAA29465046FFF7D3FC3AE009F10407C0
:10119000D9F8003016A941F83C3D022300220DA8E1
:1011A000FFF783FC8246B946E0E709F10407D9F866
:1011B000003016A941F83C3D102300220DA8FFF78E
:1011C00074FC8246B946D1E709F10407D9F800302A
:1011D00016A941F83C3D0A2300220DA8FFF765FC43
:1011E0008246B946C2E7019B0CAA29465046FFF742
:1011F00090FCAA4605E008F1FF38019A0CA9FFF718
:101200003FFC98F800000028F5D116F0010F3FF4DC
:1012100098AD019B0CAA29465046FFF789FC90E542
:10122000DDF80C90EDE709F10405019A0CA999F895
:101230000000FFF725FCA94683E509F1040AD9F867
:101240000070002F3BD03846FCF7FAFA814616F0C2
:1012500001060FD0B8F1000F17D03878C0B1B8F13F
:10126000000FFADD08F1FF380137019A0CA9FFF7EA
:1012700007FCF2E7019B0CAA2946FFF759FCE9E7B6
:101280000137019A0CA9FFF7FBFB38780028F7D14A
:101290000EB9D14655E5019B0CAA29464846FFF7F1
:1012A00047FCD1464DE5D9F800300C9A1A6009F197
:1012B000040946E5019A0CA9FFF7E2FB41E5D14696
:1012C0003FE50C9817B0BDE8F08F00BF0FB400B534
:1012D00085B001230193064B029306AA52F8041B22
:1012E00001A8FFF70FFD05B05DF804EB04B07047EF
:1012F0004F0B0108DFF838D0002103E00D4B5B589D
:10130000435004310C480D4B42189A42F6D30C4A14
:1013100002E0002342F8043B0A4B9A42F9D3FEF75D
:1013200047FBFFF7BDF800F013F8FEF769FBFEE797
:10133000FFFF0020F81A0108004000203440002080
:1013400038400020344D002000B500BF00BD000033
:1013500070B50D4E0D4CA41BA4100025A54209D15B
:101360000B4E0C4C00F0E8F8A41BA4100025A5427D
:1013700005D170BD56F8253098470135EEE756F88F
:10138000253098470135F2E7E81A0108E81A010804
:10139000E81A0108EC1A0108931E222B10B50C461E
:1013A00004D900230B701C46204610BD0A2A09D11F
:1013B000002807DA2D230B7040420121214400F060
:1013C0007DF8F1E70021F9E7FFF7E6BF10B5431E0E
:1013D0000A44914200D110BD11F8014B03F8014FAE
:1013E000F7E702440346934200D1704703F8011B1C
:1013F000F9E710B503461A785C1C3AB9013B11F8BD
:10140000012B03F8012F002AF9D110BD2346F2E782
:10141000C9B2034610F8012B1AB18A42F9D1184615
:101420007047002918BF0023F9E7034611F8012B84
:1014300003F8012B002AF9D1704710B56AB10139C0
:10144000841810F8013B11F8012F934203D1A042F8
:1014500001D0002BF5D1981A10BD1046FCE770B5ED
:101460000139044602B970BD234611F8015F03F843
:10147000015B561E2DB91444A342F4D003F8015B5E
:10148000FAE71C463246EDE7F0B503787BB1044637
:1014900023782046661C7BB14A1E631E12F8015F4A
:1014A0004DB113F8017FAF423446F7D0F0E70B7827
:1014B000002B18BF0020F0BD1846FCE7F0B51D4B0F
:1014C0008BB005460C466E4603F1200C186859682F
:1014D000374603C7083363453E46F7D118681B7982
:1014E0003B71931E222B38604FF0000304D9237008
:1014F0001C4620460BB0F0BD661EB5FBF2F00AAFED
:1015000002FB10553D44591C15F8285C06F8015F94
:10151000054668B9605423442246191B101B8142BA
:10152000E7DD1178187802F8010B03F80119F4E7E8
:101530000B46E2E7B41A0108F8B500BFF8BC08BCD6
:101540009E467047F8B500BFF8BC08BC9E46704781
:101550001F003B005A0078009700B500D400F3004C
:10156000110130014E016D01323032332D30372DF3
:1015700031382032303A31393A3030000000000042
:101580001F003B005A0078009700B500D400F3001C
:10159000110130014E016D017472616E0000000096
:1015A00041542B43495053544152543D00000000D4
:1015B000312C7463705F636C69656E742C0000007D
:1015C00041542B43495053544F503D310D000000BE
:1015D00041542B574D41433F0D0A000041542B57B6
:1015E0004A41503D0000000041542B574A41503DB4
:1015F0003F0D000041542B574A4150510D0000004F
:101600004F4B00004552524F5200000041542B55A1
:10161000415254453D4F46460D00000041542B4376
:1016200049504556454E543D4F46460D000000007A
:1016300041542B43495053454E443D312C0000004A
:1016400056332E32000000000D0A205769466920EB
:101650005175697474696E672E2E2E0D0A00000094
:101660000D0A205769466920517569747465642EA6
:101670002E2E0D0A00000000313233343536373853
:10168000000000005769466954657374000000004B
:101690000D0A205769466920496E6974696E672E84
:1016A0002E2E0D0A000000000D0A20576946692001
:1016B000496E69747465642E2E2E0D0A00000000B8
:1016C0000D0A205769466920446973636F6E6E6521
:1016D0006374696E672E2E2E0D0A00000D0A2057C6
:1016E00069466920446973636F6E6E6563747465DF
:1016F000642E2E2E0D0A00000D0A2057694669201F
:10170000436F6E6E656374696E672E2E2E0D0A0030
:101710000D0A205769466920436F6E6E65637474C5
:1017200065642E2E2E0D0A005BBDF0BAF9C2AB5DCA
:1017300057694669D6D5B6CB5545C4A3B0E5202038
:1017400020000000000053442D32332D303520207E
:101750002020202000000000000041484C2D535460
:101760004D33322D576946692D44582D303053443E
:101770002D41524D20C7B6C8EBCABDC8CBB9A4D6BF
:10178000C7C4DCD3EBCEEFC1AACDF820302E343065
:10179000B0EA596400000000576946690000000083
:1017A0000000000000000000000000003133303075
:1017B000303030303030303139322E3136382E3111
:1017C00033372E31000033323232351E0000000034
:1017D0000000005530576946695465737400000075
:1017E00000000000000000000000000000000000F9
:1017F0000000000000313233343536373800000045
:1018000000000000000000000000000000000000D8
:1018100000000000000000000D0ABDF8C8EBB3F5A1
:10182000CABCBBAFCFDFB3CC7468726561645F695B
:101830006E6974A3A10D0A000D0A2041484C2D4980
:101840006F542D4745432073746172742E2E2E20E1
:10185000200A00000D0A20666C6173685F65726182
:10186000736520616E642077726974652E2E2E2058
:10187000202020202020200D0A0000000D0A2066D4
:101880006C6173685F657261736520616E64207757
:10189000726974652E2E2E4F4B2020202020202090
:1018A000200D0A000D0A2041484C20496E69742021
:1018B0002020202020202020202020202020202028
:1018C0002020200D0A0000000D0A20B3F5CABCBB81
:1018D000AFB9A4D7F7BDE1CAF82E2E2E0D0A00002D
:1018E000553000000D0A20BDF8C8EBCFDFB3CC7433
:1018F00068726561645F73656E64210D0A000000A3
:101900000D0A20B5B1C7B0CAB1BCE4CEAAA3BA25AE
:10191000730D0A000D0A256420C3EBCAB1BCE4B5FF
:10192000BDA3ACB7A2CBCDD2BBD6A1CAFDBEDDA3B1
:10193000A10D0A000D0A20576946692053656E649F
:10194000205375636365737366756C6C790D0A005B
:101950000D0ACAD5B5BDD2BBD6A10A00323032308D
:1019600030393038200000003031323334353637EA
:1019700038394142434445463230323030373136CF
:10198000000000002020A1BE55736572CCE1CABEE4
:10199000A1BFA3BABDABBDF8C8EB55736572B5C4A2
:1019A0006D61696E2829D6B4D0D02E2E2E0D0A0076
:1019B000A1BECCE1CABEA1BFB1BEB3CCD0F2CEAA0B
:1019C000B4F852542D546872656164B5C4576946C1
:1019D00069CDA8D0C5B3CCD0F20D0A00A1BEBBF929
:1019E000B1BEB9A6C4DCA1BFA2D920D4DA2052541A
:1019F0002D546872656164C6F4B6AFBAF3B4B4BD71
:101A0000A8C1CBB3F5CABCBBAFBACDB7A2CBCDC1D1
:101A1000BDB8F6D3C3BBA7CFDFB3CC0D0A0000001F
:101A2000092020202020202020A2DA20C3BFB8F4E3
:101A3000333073B7A2CBCDD2BBB4CECAFDBEDDB8B6
:101A4000F8B7FECEF1C6F70D0A000000A1BEB2D96C
:101A5000D7F7B7BDB7A8A1BFC1ACBDD34465627508
:101A600067B4AEBFDAA3ACD1A1D4F1B2A8CCD8C2CE
:101A7000CACEAA313135323030A3ACB4F2BFAAB4E9
:101A8000AEBFDAA3ACB2E9BFB4CAE4B3F6BDE1B904
:101A9000FB2E2E2E0D0A00000D0A4D4355C6F4B63E
:101AA000AF0D0A00696E69740000000073656E6412
:101AB0000000000030313233343536373839616256
:101AC000636465666768696A6B6C6D6E6F7071726E
:101AD000737475767778797A000000000000000052
:081AE000D0C6FF7F01000000E9
:081AE80025D8000800000000F1
:081AF00001D80008000000000D
:101AF8003233333335000000006CDC02000000484C
:101B08000004004800080048000C00480010004885
:101B1800001C0048003801400044004000480040D4
:041B28002526270047
:040000050800D80017
:00000001FF
